:020000040000FA
:100000000C9462000C948A000C948A000C948A0070
:100010000C948A000C948A000C948A000C948A0038
:100020000C948A000C948A000C948A000C948A0028
:100030000C948A000C948A000C948A000C948A0018
:100040000C94C5050C948A000C9493050C946D05D2
:100050000C948A000C948A000C948A000C948A00F8
:100060000C948A000C948A000000000024002700F1
:100070002A0000000000250028002B0000000008D6
:10008000000201000003040700000000000000005F
:1000900000000000230026002900040404040404D6
:1000A0000404020202020202030303030303010227
:1000B00004081020408001020408102001020408F6
:1000C00010200F0611241FBECFEFD8E0DEBFCDBF3A
:1000D00011E0A0E0B1E0E0E1F4E102C005900D9292
:1000E000AC35B107D9F722E0ACE5B1E001C01D9213
:1000F000A531B207E1F710E0C2E6D0E004C02197D5
:10010000FE010E94000AC136D107C9F70E945C06B1
:100110000C94060A0C940000CF92DF92EF92FF92AB
:10012000CF93DF93C82F809108028C3009F45EC012
:1001300038F48B30F1F060E070E080EC9FE74FC066
:1001400085518230C0F7D09104026D2F70E0762F78
:10015000662766277F7780910502682B90E080E014
:100160000E94B5082DEC3CEC4CEC5DE30E946C0960
:1001700059C06091040270E090E080E00E94B508F0
:100180006B017C01D0910502D7FF0AC0AC019B0135
:1001900060E070E080E89FEB0E94A2076B017C01A9
:1001A000DF706D2F70E090E080E00E94B7082DECCA
:1001B0003CEC4CEC5DE30E946C09A70196010E94A7
:1001C000A307CC2361F026E636E646EE5FE30E9405
:1001D0006C0920E030E040E052E40E94A307DF9188
:1001E000CF91FF90EF90DF90CF900895D0910402CF
:1001F0006D2F70E090E080E00E94B5086B017C01FB
:10020000609105026F7070E090E080E00E94B70896
:100210002DEC3CEC4CEC5DE30E946C09A7019601CF
:100220000E94A307D7FFCDCF9058CBCFCF92DF92BC
:10023000EF92FF92CF93DF93B0910902A0E081117A
:10024000AB2F80910A0290E0880F991FAC014057B4
:100250005F4FC0900F02D0901002E0901102F0901A
:10026000120230E020E0FA01C591D491E881B90191
:1002700090E080E0EB23EA130AC02F5F3F4F6C153C
:100280007D058E059F0578F36FEF7FEFCB01DF9142
:10029000CF91FF90EF90DF90CF900895AF92BF92F3
:1002A000CF92DF92EF92FF920F931F93CF93DF9342
:1002B0006C017B018B01040F151FEB015E01AE1871
:1002C000BF08C017D10759F06991D601ED91FC9193
:1002D0000190F081E02DC6010995892B79F7C501C0
:1002E000DF91CF911F910F91FF90EF90DF90CF9012
:1002F000BF90AF900895FC01538D448D252F30E0C1
:10030000842F90E0821B930B541710F0CF96089522
:1003100001970895FC01918D828D981761F0A28D4F
:10032000AE0FBF2FB11D5D968C91928D9F5F9F7315
:10033000928F90E008958FEF9FEF0895FC01918DCB
:10034000828D981731F0828DE80FF11D858D90E038
:1003500008958FEF9FEF0895FC01918D228D892FD5
:1003600090E0805C9F4F821B91098F7399270895BD
:1003700085E691E00E94AC0121E0892B09F420E0A0
:10038000822F089580E090E0892B29F00E94B80127
:1003900081110C9400000895FC01A48DA80FB92FC1
:1003A000B11DA35ABF4F2C91848D90E001968F739D
:1003B0009927848FA689B7892C93A089B1898C91BC
:1003C000837080648C93938D848D981306C002880B
:1003D000F389E02D80818F7D80830895EF92FF92D5
:1003E0000F931F93CF93DF93EC0181E0888F9B8D58
:1003F0008C8D98131AC0E889F989808185FF15C012
:100400009FB7F894EE89FF896083E889F989808134
:100410008370806480839FBF81E090E0DF91CF9103
:100420001F910F91FF90EF900895F62E0B8D10E025
:100430000F5F1F4F0F731127E02E8C8D8E110CC094
:100440000FB607FCFACFE889F989808185FFF5CFDF
:10045000CE010E94CC01F1CFEB8DEC0FFD2FF11DF1
:10046000E35AFF4FF0829FB7F8940B8FEA89FB891C
:1004700080818062CFCFCF93DF93EC01888D88237A
:10048000B9F0AA89BB89E889F9898C9185FD03C0F7
:10049000808186FD0DC00FB607FCF7CF8C9185FFDC
:1004A000F2CF808185FFEDCFCE010E94CC01E9CF54
:1004B000DF91CF910895CF93DF9390E0FC01E25557
:1004C000FF4F249186569F4FFC0184918823D1F0E1
:1004D00090E0880F991FFC01E859FF4FA591B49156
:1004E000FC01EE58FF4FC591D491623071F49FB773
:1004F000F8943C91822F809583238C93E8812E2B56
:1005000028839FBFDF91CF9108958FB7F894EC9126
:100510002E2B2C938FBFF6CF3FB7F89480915D01BF
:1005200090915E01A0915F01B091600126B5A89BFA
:1005300005C02F3F19F00196A11DB11D3FBFBA2F75
:10054000A92F982F8827BC01CD01620F711D811D35
:10055000911D42E0660F771F881F991F4A95D1F7BA
:1005600008958F929F92AF92BF92CF92DF92EF92B7
:10057000FF924B015C010E948C026B017C010E9486
:100580008C026C197D098E099F09683E73408105B4
:100590009105A8F321E0821A9108A108B10888EE1C
:1005A000C80E83E0D81EE11CF11C81149104A10443
:1005B000B10429F7FF90EF90DF90CF90BF90AF90FC
:1005C0009F908F9008958F929F92AF92BF92EF92DB
:1005D000FF920F931F93CF93DF93CDB7DEB7C05435
:1005E000D1400FB6F894DEBF0FBECDBF2FB7F89441
:1005F0008091610190916201A0916301B0916401C9
:100600002FBF40910B0250910C0260910D0270912E
:100610000E028C019D01041B150B260B370BB90133
:10062000A801403D574061057105A0F48091130277
:10063000C05CDE4F0FB6F894DEBF0FBECDBFDF91BA
:10064000CF911F910F91FF90EF90BF90AF909F902F
:100650008F90089580930B0290930C02A0930D024B
:10066000B0930E021092060210920502109204023C
:10067000109203021092020262E0809107020E942F
:100680005B0261E070E080E090E00E94B10261E016
:10069000809107020E945B028091070290E0FC01BA
:1006A000E458FF4F2491FC01E255FF4F3491FC01C7
:1006B000E656FF4FE491EE23D9F0222359F0233080
:1006C00009F44BC008F03EC0213009F44CC0223080
:1006D00009F44DC0F0E0EE0FFF1FEE58FF4FA5915B
:1006E000B4918FB7F894EC9130953E233C938FBF33
:1006F000809108028551823008F046C08BE291E17A
:100700000197F1F762E0809107020E945B028091FD
:10071000140290E08230910538F0880F991F880FFD
:10072000991F05970197F1F7F89480E00E94160150
:100730006F3F7F4F8F4F9F4F71F510921302789448
:1007400080E076CF2730B1F02830D1F0243009F0A6
:10075000C1CF809180008F7D03C0809180008F7712
:1007600080938000B7CF84B58F7784BDB3CF84B535
:100770008F7DFBCF8091B0008F778093B000AACFA0
:100780008091B0008F7DF9CF64E170E080E090E06F
:100790000E94B102B7CF81E00E9416016F3F7F4FE8
:1007A0008F4F9F4F51F2CE0101967C015E019FEB6E
:1007B000A91A9EEFB90A870180E00E941601F8018C
:1007C000608371838283938381E00E941601F80124
:1007D0006483758386839783085F1F4FA016B106D5
:1007E00059F7789430E020E0F70180809180A28072
:1007F000B3804481558166817781FFEF8F169F0614
:10080000AF06BF0631F04F3F0FEF5007600770078C
:1008100019F41092130294CFF90183E0F595E7954E
:100820008A95E1F7EE5FFD4F8081880F841695066B
:10083000A606B70618F180832F5F3F4F18E0E10E40
:10084000F11C2832310581F6409106022091020206
:1008500080910302280F3327331F80910402280F51
:10086000311D80910502820F932F911D9927481702
:10087000190679F681E080931302DACE8160DBCF2E
:10088000FC0101900020E9F73197AF01481B590B9B
:10089000BC0185E691E00C944E018F929F92AF923D
:1008A000BF920F931F93CF93DF93CDB7DEB7A1977E
:1008B0000FB6F894DEBF0FBECDBF19A2423008F4C8
:1008C0004AE08E010F5D1F4F842E912CB12CA12C7C
:1008D000A50194010E94DE09E62FB901CA01EA30A0
:1008E000F4F4E05DD801EE938D01232B242B252B0E
:1008F00079F790E080E0109719F0CD010E94400454
:10090000A1960FB6F894DEBF0FBECDBFDF91CF9199
:100910001F910F91BF90AF909F908F900895E95CC9
:10092000E1CF4F925F926F927F928F929F92AF92A0
:10093000BF92CF92DF92EF92FF920F931F93CF93CC
:100940006B017C01742EAC019B010E94D9098823A4
:1009500099F082E191E0CF911F910F91FF90EF907C
:10096000DF90CF90BF90AF909F908F907F906F90CF
:100970005F904F900C94400446015701E894B7F8FB
:100980002FEF3FEF4FE75FE7C501B4010E94D909A0
:1009900081110DC02FEF3FEF4FE75FE7C501B401B5
:1009A0000E940F0818161CF486E191E0D4CF2FEFB7
:1009B0003FEF4FE75FE4C701B6010E9467091816D1
:1009C0001CF48AE191E0C7CF2FEF3FEF4FE75FECD8
:1009D000C701B6010E940F0887FDF3CF20E030E089
:1009E000A901C701B6010E940F0810E000E087FFCF
:1009F0000AC06DE285E691E00E94EE018C01F7FAF3
:100A0000F094F7F8F094C0E060E070E080E09FE3DD
:100A10007C1641F020E030E040E251E40E941408EE
:100A2000CF5FF6CFA70196010E94A3072B013C01DF
:100A30000E9486084B015C014AE00E944D047C0143
:100A4000E00EF11ECC23C1F1C501B4010E94B5082E
:100A50009B01AC01C301B2010E94A2074B015C01E2
:100A60006EE285E691E00E94EE01E80EF91EC150AB
:100A700018F120E030E040E251E4C501B4010E94E9
:100A80006C092B013C010E9486084B01B12CA12C62
:100A90004AE0C501B4010E944D04E80EF91EC501EB
:100AA000B4010E94B5089B01AC01C301B2010E94D0
:100AB000A2074B015C01DBCFC701CF911F910F91C2
:100AC000FF90EF90DF90CF90BF90AF909F908F906E
:100AD0007F906F905F904F9008951F920F920FB686
:100AE0000F9211242F933F934F935F936F937F93B4
:100AF0008F939F93AF93BF93EF93FF9385E691E01E
:100B00000E94CC01FF91EF91BF91AF919F918F9186
:100B10007F916F915F914F913F912F910F900FBEF9
:100B20000F901F9018951F920F920FB60F921124DD
:100B30002F938F939F93EF93FF93E0917501F09123
:100B400076018081E0917B01F0917C0182FD1BC0E8
:100B5000908180917E018F5F8F7320917F0182173A
:100B600041F0E0917E01F0E0EB59FE4F958F8093CC
:100B70007E01FF91EF919F918F912F910F900FBE6A
:100B80000F901F9018958081F4CF1F920F920FB68F
:100B90000F9211242F933F938F939F93AF93BF9303
:100BA0008091610190916201A0916301B091640113
:100BB00030915C0123E0230F2D3758F50196A11DDC
:100BC000B11D20935C018093610190936201A09319
:100BD0006301B093640180915D0190915E01A091E9
:100BE0005F01B09160010196A11DB11D80935D016F
:100BF00090935E01A0935F01B0936001BF91AF91AC
:100C00009F918F913F912F910F900FBE0F901F904A
:100C1000189526E8230F0296A11DB11DD2CFE5E657
:100C2000F1E01382128288EE93E0A0E0B0E08483CA
:100C30009583A683B78384E091E09183808385ECDC
:100C400090E09587848784EC90E09787868780EC96
:100C500090E0918B808B81EC90E0938B828B82EC87
:100C600090E0958B848B86EC90E0978B868B118E31
:100C7000128E138E148EA2E0B2E082E015968C9351
:100C800015978BE016968C931697E0EBF0E0E491C5
:100C90001796EC931797ECE9F0E0E4911896EC9333
:100CA000189740E85EE360E070E01D964D935D9319
:100CB0006D937C9350970895789484B5826084BD39
:100CC00084B5816084BD85B5826085BD85B5816050
:100CD00085BD80916E00816080936E0010928100CE
:100CE0008091810082608093810080918100816089
:100CF000809381008091800081608093800080914A
:100D0000B10084608093B1008091B00081608093D5
:100D1000B00080917A00846080937A0080917A009C
:100D2000826080937A0080917A00816080937A005B
:100D300080917A00806880937A001092C100E091DF
:100D40007501F091760182E08083E0917101F0916C
:100D500072011082E0917301F09174018FEC808335
:100D600010927D01E0917901F0917A0186E0808313
:100D7000E0917701F0917801808180618083E0913A
:100D80007701F0917801808188608083E09177011C
:100D9000F0917801808180688083E0917701F09103
:100DA000780180818F7D80838EE191E00E944004F4
:100DB0008DE291E00E94400462E0809107020E946F
:100DC0005B022FB7F8948091610190916201A0912C
:100DD0006301B09164012FBF805D9740A109B10903
:100DE00080930B0290930C02A0930D02B0930E021D
:100DF00087E380931402C0E0D0E064EF71E080E00C
:100E000090E00E94B1020E94E302882351F0809199
:100E100008028B3030F08D3058F08551823008F464
:100E200069C0C12CD12C20ECE22E2FE7F22E1EC07F
:100E30006091030270E090E080E00E94B7082DEC22
:100E40003CEC4CEC5DE30E946C096B017C01609111
:100E5000020270E090E080E00E94B7089B01AC01C4
:100E6000C701B6010E94A3076B017C010E94E30247
:100E7000812C912C90ECA92E9FE7B92E882329F084
:100E800080E00E948C004B015C010E94E3028823F9
:100E900009F442C081E00E948C002B013C01A701B3
:100EA0009601C701B6010E94D909811110C0A501A0
:100EB0009401C501B4010E94D909811108C0A301A0
:100EC0009201C301B2010E94D909882361F180E334
:100ED00091E00E9440048DE291E00E94400420973E
:100EE00009F48BCF0E94B801882309F486CF0E94B1
:100EF000000083CF6091020270910302762767277A
:100F0000762790E080E00E94B5082DEC3CEC4CEC9C
:100F10005DE30E946C09A8CF412C512C80EC682E17
:100F20008FE7782EBCCF42E0C501B4010E94910446
:100F30008DE291E00E94400442E0C701B6010E94A8
:100F40009104C9CF5058BB27AA270E94BA070C9416
:100F50002D090E941F0938F00E94260920F039F45B
:100F60009F3F19F426F40C941C090EF4E095E7FB5E
:100F70000C941609E92F0E943E0958F3BA1762072C
:100F800073078407950720F079F4A6F50C9460099F
:100F90000EF4E0950B2EBA2FA02D0B01B901900194
:100FA0000C01CA01A0011124FF27591B99F0593FD8
:100FB00050F4503E68F11A16F040A22F232F342F20
:100FC0004427585FF3CF469537952795A795F0406E
:100FD0005395C9F77EF41F16BA0B620B730B840B83
:100FE000BAF09150A1F0FF0FBB1F661F771F881F3B
:100FF000C2F70EC0BA0F621F731F841F48F4879593
:1010000077956795B795F7959E3F08F0B0CF939584
:10101000880F08F09927EE0F9795879508950E94FD
:10102000F20808F481E008950E9428080C942D0924
:101030000E94260958F00E941F0940F029F45F3FE2
:1010400029F00C94160951110C9461090C941C0997
:101050000E943E0968F39923B1F3552391F3951B40
:10106000550BBB27AA2762177307840738F09F5FC9
:101070005F4F220F331F441FAA1FA9F335D00E2E36
:101080003AF0E0E832D091505040E695001CCAF7A3
:101090002BD0FE2F29D0660F771F881FBB1F261766
:1010A00037074807AB07B0E809F0BB0B802DBF013D
:1010B000FF2793585F4F3AF09E3F510578F00C940C
:1010C00016090C9461095F3FE4F3983ED4F38695CA
:1010D00077956795B795F7959F5FC9F7880F911D2D
:1010E0009695879597F90895E1E0660F771F881F19
:1010F000BB1F621773078407BA0720F0621B730BCC
:10110000840BBA0BEE1F88F7E09508950E944609FC
:1011100088F09F5798F0B92F9927B751B0F0E1F0B8
:10112000660F771F881F991F1AF0BA95C9F714C068
:10113000B13091F00E946009B1E008950C9460090B
:10114000672F782F8827B85F39F0B93FCCF38695A1
:1011500077956795B395D9F73EF4909580957095FE
:1011600061957F4F8F4F9F4F0895E89409C097FB7B
:101170003EF490958095709561957F4F8F4F9F4F6E
:101180009923A9F0F92F96E9BB279395F6958795B2
:1011900077956795B795F111F8CFFAF4BB0F11F475
:1011A00060FF1BC06F5F7F4F8F4F9F4F16C088231C
:1011B00011F096E911C0772321F09EE8872F762F52
:1011C00005C0662371F096E8862F70E060E02AF093
:1011D0009A95660F771F881FDAF7880F969587957F
:1011E00097F90895990F0008550FAA0BE0E8FEEF54
:1011F00016161706E807F907C0F012161306E407DB
:10120000F50798F0621B730B840B950B39F40A26D3
:1012100061F0232B242B252B21F408950A2609F4B1
:10122000A140A6958FEF811D811D089597F99F67B5
:1012300080E870E060E008959FEF80EC089500245E
:101240000A941616170618060906089500240A942B
:1012500012161306140605060895092E0394000CB1
:1012600011F4882352F0BB0F40F4BF2B11F460FF40
:1012700004C06F5F7F4F8F4F9F4F089557FD905869
:10128000440F551F59F05F3F71F04795880F97FB4A
:10129000991F61F09F3F79F0879508951216130604
:1012A0001406551FF2CF4695F1DF08C01616170633
:1012B0001806991FF1CF8695710561050894089568
:1012C000E894BB2766277727CB0197F908950E94FA
:1012D000F20808F48FEF08950E947F090C942D09FD
:1012E0000E941F0938F00E94260920F0952311F072
:1012F0000C9416090C941C0911240C9461090E9489
:101300003E0970F3959FC1F3950F50E0551F629F02
:10131000F001729FBB27F00DB11D639FAA27F00D4E
:10132000B11DAA1F649F6627B00DA11D661F829F75
:101330002227B00DA11D621F739FB00DA11D621F5A
:10134000839FA00D611D221F749F3327A00D611D77
:10135000231F849F600D211D822F762F6A2F112459
:101360009F5750409AF0F1F088234AF0EE0FFF1F8C
:10137000BB1F661F771F881F91505040A9F79E3FE3
:10138000510580F00C9416090C9461095F3FE4F359
:10139000983ED4F3869577956795B795F795E79539
:1013A0009F5FC1F7FE2B880F911D9695879597F942
:1013B00008950E94F208880B990B0895A1E21A2E55
:1013C000AA1BBB1BFD010DC0AA1FBB1FEE1FFF1FE9
:1013D000A217B307E407F50720F0A21BB30BE40B39
:1013E000F50B661F771F881F991F1A9469F7609580
:1013F0007095809590959B01AC01BD01CF0108953A
:10140000EE0FFF1F0590F491E02D0994F894FFCFA3
:1014100000000000EE014E017B013B02AC018A019D
:101420009E016E616E00696E66006F7666004C65A7
:10143000742773205374617274212121000D0A00F6
:10144000536F7272792C636F756C646E277420729F
:101450006561642066726F6D20746865204448542D
:0C14600031312053656E736F7221000063
:107E0000112484B714BE81FFF0D085E080938100F7
:107E100082E08093C00088E18093C10086E0809377
:107E2000C20080E18093C4008EE0C9D0259A86E02C
:107E300020E33CEF91E0309385002093840096BBD3
:107E4000B09BFECF1D9AA8958150A9F7CC24DD24C4
:107E500088248394B5E0AB2EA1E19A2EF3E0BF2EE7
:107E6000A2D0813461F49FD0082FAFD0023811F036
:107E7000013811F484E001C083E08DD089C08234E0
:107E800011F484E103C0853419F485E0A6D080C0E4
:107E9000853579F488D0E82EFF2485D0082F10E0AE
:107EA000102F00270E291F29000F111F8ED06801E7
:107EB0006FC0863521F484E090D080E0DECF843638
:107EC00009F040C070D06FD0082F6DD080E0C81688
:107ED00080E7D80618F4F601B7BEE895C0E0D1E017
:107EE00062D089930C17E1F7F0E0CF16F0E7DF06D8
:107EF00018F0F601B7BEE89568D007B600FCFDCFD4
:107F0000A601A0E0B1E02C9130E011968C91119780
:107F100090E0982F8827822B932B1296FA010C0160
:107F200087BEE89511244E5F5F4FF1E0A038BF0790
:107F300051F7F601A7BEE89507B600FCFDCF97BE46
:107F4000E89526C08437B1F42ED02DD0F82E2BD052
:107F50003CD0F601EF2C8F010F5F1F4F84911BD097
:107F6000EA94F801C1F70894C11CD11CFA94CF0C13
:107F7000D11C0EC0853739F428D08EE10CD085E9AC
:107F80000AD08FE07ACF813511F488E018D01DD067
:107F900080E101D065CF982F8091C00085FFFCCF94
:107FA0009093C60008958091C00087FFFCCF809118
:107FB000C00084FD01C0A8958091C6000895E0E648
:107FC000F0E098E1908380830895EDDF803219F02E
:107FD00088E0F5DFFFCF84E1DECF1F93182FE3DFCA
:107FE0001150E9F7F2DF1F91089580E0E8DFEE27F6
:047FF000FF270994CA
:027FFE00040479
:00000001FF
